:020000040000FA
:04000000A7EF3FF037
:107F4E00056A0001C9EF3FF0016E01C0A9FFA69EB0
:107F5E00A69CA680A8501200026E02C0A9FF01C006
:107F6E00A8FFA69EA69CA684550EA76EAA0EA76E67
:107F7E00A682A6B2C5EF3FF0C7EF3FF0C0EF3FF0CD
:107F8E00A694120093809382000E956E81B0D2EF6C
:107F9E003FF0D4EF3FF0E4EF3FF0480E016E640E79
:107FAE00B3EC3FF0030E046E8A0E036E560EE82EEF
:107FBE00FED7032EFCD7042EFAD781B2E9EF3FF09D
:107FCE00EBEF3FF0FAEF3FF0640EABEC3FF0056ED7
:107FDE00030E046E8A0E036E560EE82EFED7032E87
:107FEE00FCD7042EFAD705C08CFFCDEF3FF000EF83
:027FFE0000F091
:020000040020DA
:08000000FFFFFFFFFFFFFFFF00
:020000040030CA
:0E000000000C181EFF8180FF0FC00FE00F40A4
:00000001FF
