:020000040000FA
:0400000030EF00F0ED
:06000800188262ED05F014
:100018001880D8CF01F0E8CF02F0E0CF03F0D9CFB5
:1000280004F0DACF05F0130E1024D96E000E11205B
:10003800DA6EAECFDFFF104A112A0E4A0F2A9E9AB7
:1000480005C0DAFF04C0D9FF03C0E0FF02C0E8FF23
:0C00580001C0D8FF1890100044EF05F024
:1008000000486F6C61203A440000000E956E000EA7
:100810008C6E300EABEC04F0030E096E8A0E086E7F
:10082000560EE82EFED7082EFCD7092EFAD7300E2A
:10083000ABEC04F0030E096E8A0E086E560EE82E1D
:10084000FED7082EFCD7092EFAD7320EABEC04F0F7
:10085000280EABEC04F00C0EABEC04F0010EABEC8C
:1008600004F0060EABEC04F0030E096E8A0E086E5F
:10087000560EE82EFED7082EFCD7092EFAD7120006
:100880001F0E33EC05F005EC04F05EEC05F0010EF4
:10089000076E080E086EE0EC04F0050E0E180F103F
:1008A000D8A455EF04F057EF04F04DEF04F0000E1C
:1008B000096E000E086E000E0B6E000E0A6E1BEC29
:1008C00005F0130E086E000E096EFFEC04F0030E27
:1008D0000D6E8A0E0C6E560EE82EFED70C2EFCD72F
:1008E0000D2EFAD74DEF04F030EF00F0076E8C506C
:1008F0000F0B8C6E0750F00B8C108C6E8C84070ED7
:10090000066E7D0EE82EFED7062EFCD700F08C86F4
:10091000070E066E7D0EE82EFED7062EFCD700F0E1
:100920008C960F0E8C160738F00BF00B8C128C8403
:10093000070E066E7D0EE82EFED7062EFCD700F0C1
:100940008C86070E066E7D0EE82EFED7062EFCD78F
:1009500000F08C961200076E8C500F0B8C6E0750B7
:10096000F00B8C108C6E8C94070E066E7D0EE82EAC
:10097000FED7062EFCD700F08C86070E066E7D0E85
:10098000E82EFED7062EFCD700F08C960F0E8C16A4
:100990000738F00BF00B8C128C94070E066E7D0E50
:1009A000E82EFED7062EFCD700F08C86070E066ECA
:1009B0007D0EE82EFED7062EFCD700F08C96120096
:1009C000F0EF04F0A60EE82EFED700D007C0F6FF29
:1009D00008C0F7FF0800F55053EC05F0074A082A55
:1009E00007C0F6FF08C0F7FF0800F5500009D8A4BB
:1009F000FCEF04F0FEEF04F0E2EF04F012000EEF63
:100A000005F0A60EE82EFED700D008C0D9FF09C019
:100A1000DAFFDF5076EC04F0084A092A08C0D9FF53
:100A200009C0DAFFDF50D8A418EF05F01AEF05F07F
:100A300001EF05F0120009BE26EF05F0095008E1AC
:100A40000804D8A026EF05F028EF05F02EEF05F0FA
:100A50000A50C00FABEC04F032EF05F00A50800FE3
:100A6000ABEC04F01200066E949C948E06C0AFFFAF
:100A7000AC98AC94B896AB8EAC9CAC8AAB9CAB8873
:100A80009E9A9D8A9F9A120000EE0EF00A0EEE6A60
:100A9000E806FDE118901892000EF86E080EF76E49
:100AA000000140EF04F0066EACA259EF05F05BEFD9
:100AB00005F054EF05F006C0ADFF1200D08EF28EA7
:0C0AC000F28C12000600F2921892110055
:020000040020DA
:08000000FFFFFFFFFFFFFFFF00
:020000040030CA
:0E000000000C181EFF8180FF0FC00FE00F40A4
:00000001FF
