:020000040000FA
:0400000020EF00F0FD
:06000800068250ED00F03D
:100018000680D8CF01F0E8CF02F0E0CF03F0000E61
:10002800056E010E046EF09003C0E0FF02C0E8FF09
:1000380001C0D8FF0690100058EF00F095909592F7
:100048008C928C9041EC00F0020E04180510D8A494
:1000580030EF00F032EF00F033EF00F08C80040452
:100068000510D8A43AEF00F03CEF00F028EF00F0BC
:100078008C9028EF00F020EF00F093809382938417
:10008800F086F088F090F092F09CF08EF19AF1985A
:10009800D08EF28EF28C12000600000E056E020E53
:1000A800046EF09206921100056A046A06900692A0
:0600B800000122EF00F040
:020000040020DA
:08000000FFFFFFFFFFFFFFFF00
:020000040030CA
:0E000000000C181EFF8180FF0FC00FE00F40A4
:00000001FF
