:020000040000FA
:04000000ADEF3FF031
:107F5A000001B0EF3FF09590959295948C809380B4
:107F6A00938281B0BBEF3FF0BDEF3FF0C6EF3FF029
:107F7A0081A2C2EF3FF0C4EF3FF0C6EF3FF08C8220
:107F8A008C9481B2CBEF3FF0CDEF3FF0D8EF3FF0CA
:107F9A0081A0D2EF3FF0D4EF3FF0D8EF3FF08C92C0
:107FAA008C84B6EF3FF081A2DDEF3FF0DFEF3FF0C8
:107FBA00EAEF3FF081A0E4EF3FF0E6EF3FF0EAEFAF
:107FCA003FF08C928C94B6EF3FF081B2EFEF3FF026
:107FDA00F1EF3FF0FCEF3FF081B0F6EF3FF0F8EF42
:107FEA003FF0FCEF3FF08C928C94B6EF3FF0B6EF87
:067FFA003FF000EF00F073
:020000040020DA
:08000000FFFFFFFFFFFFFFFF00
:020000040030CA
:0E000000000C181EFF8180FF0FC00FE00F40A4
:00000001FF
