:020000040000FA
:0400000084EF05F094
:0F080000004C4120484F52412045533A20000000
:10081000000E956E6FEC04F00F0EC112B8EC05F0EF
:1008200014EC05F0000E046E000E036E000E066E52
:10083000000E056EA0EC05F0010E036E080E046EAE
:1008400065EC05F046EC05F0000E046E010E036E3B
:10085000000E066E050E056EA0EC05F013380F0BAA
:100860000F0B300FAAEC04F013500F0B300FAAEC53
:1008700004F03A0EAAEC04F011380F0B0F0B300FF6
:10088000AAEC04F011500F0B300FAAEC04F03A0E52
:10089000AAEC04F012380F0B0F0B300FAAEC04F087
:1008A00012500F0B300FAAEC04F009EC06F0400ECA
:1008B000C6EC05F01050C6EC05F000EC06F0060E94
:1008C000086E130E076EAE0EE82EFED7072EFCD76D
:1008D000082EFAD7102A22EF04F000EF00F0000EE5
:1008E000956E000E8C6E300EDFEC04F0030E046E7D
:1008F0008A0E036E560EE82EFED7032EFCD7042E6A
:10090000FAD7300EDFEC04F0030E046E8A0E036E8D
:10091000560EE82EFED7032EFCD7042EFAD7320E41
:10092000DFEC04F0280EDFEC04F00C0EDFEC04F03A
:10093000010EDFEC04F0060EDFEC04F0030E046E93
:100940008A0E036E560EE82EFED7032EFCD7042E19
:10095000FAD71200026E8C500F0B8C6E0250F00B07
:100960008C108C6E8C84070E016E7D0EE82EFED7E7
:10097000012EFCD700F08C86070E016E7D0EE82E4E
:10098000FED7012EFCD700F08C960F0E8C16023885
:10099000F00BF00B8C128C84070E016E7D0EE82E8E
:1009A000FED7012EFCD700F08C86070E016E7D0E5F
:1009B000E82EFED7012EFCD700F08C961200026EB6
:1009C0008C500F0B8C6E0250F00B8C108C6E8C9434
:1009D000070E016E7D0EE82EFED7012EFCD700F02B
:1009E0008C86070E016E7D0EE82EFED7012EFCD7F9
:1009F00000F08C960F0E8C160238F00BF00B8C1258
:100A00008C94070E016E7D0EE82EFED7012EFCD7CA
:100A100000F08C86070E016E7D0EE82EFED7012EAB
:100A2000FCD700F08C9612000AC002F00F0E0216DE
:100A300009500F0B100DF3500224136E0CC002F07E
:100A40000F0E02160B500F0B100DF3500224116EF7
:100A50000EC002F00F0E02160D500F0B100DF350CA
:100A60000224126E09EC06F0D00EC6EC05F0000E62
:100A7000C6EC05F01250C6EC05F01150C6EC05F0BE
:100A80001350C6EC05F000EC06F0120009EC06F07D
:100A9000D00EC6EC05F0000EC6EC05F0F7EC05F044
:100AA000D10EC6EC05F0D3EC05F0126EEBEC05F0C0
:100AB000D3EC05F0116EEBEC05F0D3EC05F0136E02
:100AC000DFEC05F000EC06F0120075EF05F0A60E65
:100AD000E82EFED700D003C0F6FF04C0F7FF0800E1
:100AE000F550AAEC04F0034A042A03C0F6FF04C040
:100AF000F7FF0800F5500009D8A481EF05F083EF57
:100B000005F067EF05F01200240EF66E0C0EF76E7E
:100B1000000EF86E00EE09F010EE06F00900F5CFB9
:100B2000EEFFE550E150FAE1136A126A116A106AA9
:100B30000F6A000EF86E080EF76E000108EF04F061
:100B400004BEABEF05F0045008E10304D8A0ABEFFE
:100B500005F0ADEF05F0B3EF05F00550C00FDFEC89
:100B600004F0B7EF05F00550800FDFEC04F0120041
:100B700093829380C79CC78EC68AC650F00B080923
:100B8000C66E000EC56E310EC86E1200016E9E96C6
:100B900001C0C9FF9EA6CFEF05F0D1EF05F0CAEF67
:100BA00005F09E9612009E96C5869EA6DAEF05F089
:100BB000DCEF05F0D5EF05F09E96C95012009E9629
:100BC000C58AC5889EA6E7EF05F0E9EF05F0E2EFDC
:100BD00005F09E9612009E96C59AC5889EA6F3EFD4
:100BE00005F0F5EF05F0EEEF05F09E961200C582D8
:100BF000C5B2FDEF05F0FFEF05F0F8EF05F01200CC
:100C0000C584C5B406EF06F008EF06F001EF06F064
:100C10001200C580C5B00FEF06F011EF06F00AEF25
:0A0C200006F0120031373430303195
:020000040020DA
:08000000FFFFFFFFFFFFFFFF00
:020000040030CA
:0E000000000C181EFF8180FF0FC00FE00F40A4
:00000001FF
