:020000040000FA
:040000002CEF00F0F1
:0600080022828DED01F0E3
:100018002280D8CF02F0E8CF03F0E0CF04F08AB016
:1000280018EF00F01BEF00F0010E1CEF00F0000EBF
:10003800FF0A016E8A500118FE0B01188A6EF090B3
:1000480004C0E0FF03C0E8FF02C0D8FF2290100000
:1000580072EF01F0000E956E000E926E000E936E18
:10006800A8EC01F01A041B10D8A43DEF00F03FEFF4
:1000780000F0D2EF00F0000E0F6E000E0E6E0EC0F4
:1000880005F00FC006F0000E086E640E076E06EC51
:1000980001F005C01CF006C01DF08980100E1C245C
:1000A800D96E000E1D20DA6EDF508C6E020E0D6EBA
:1000B800450E0C6EAA0EE82EFED70C2EFCD70D2E80
:1000C800FAD789900EC005F00FC006F0000E086E32
:1000D8000A0E076E06EC01F005C01EF006C01FF000
:1000E8001F5009E10A0E1E5CD8A07DEF00F07FEFDB
:1000F80000F08DEF00F01EC005F01FC006F0000EE6
:10010800086E0A0E076E40EC01F005C01EF006C02E
:100118001FF08982100E1E24D96E000E1F20DA6E81
:10012800DF508C6E020E0D6E450E0C6EAA0EE82E78
:10013800FED70C2EFCD70D2EFAD789920EC005F0EB
:100148000FC006F0000E086E0A0E076E40EC01F0B4
:1001580005C020F006C021F08984100E2024D96E35
:10016800000E2120DA6EDF508C6E020E0D6E450EE9
:100178000C6EAA0EE82EFED70C2EFCD70D2EFAD741
:1001880089940E4A0F2AE70E0E5C030E0F58D8A06A
:10019800D0EF00F0D2EF00F043EF00F0020E1A1893
:1001A8001B10D8A4DAEF00F0DCEF00F036EF00F017
:1001B8008980000E0F6E000E0E6E100E0E24D96E82
:1001C800000E0F20DA6EDF508C6E0D0E0D6EAF0E26
:1001D8000C6EB60EE82EFED70C2EFCD70D2EFAD7D5
:1001E80000D00E4A0F2A0F5009E10A0E0E5CD8A063
:1001F80000EF01F002EF01F0E1EF00F036EF00F060
:100208002CEF00F0000E0A6E000E096E0750081061
:10021800D8B411EF01F013EF01F03BEF01F0010E3C
:100228000B6E1BEF01F0D890073608360B2A08AE84
:1002380020EF01F022EF01F017EF01F0D890093616
:100248000A360750055C08500658D8A02EEF01F072
:1002580030EF01F035EF01F00750055E0850065AFF
:100268000980D890083207320B2E22EF01F009C01E
:1002780005F00AC006F0120007500810D8B447EF7E
:1002880001F049EF01F06DEF01F0010E096E51EF39
:1002980001F0D89007360836092A08AE56EF01F063
:1002A80058EF01F04DEF01F00750055C0850065873
:1002B800D8A061EF01F063EF01F067EF01F007509C
:1002C800055E0850065AD89008320732092E58EFB2
:1002D80001F005C005F006C006F01200740EF66EB7
:1002E800030EF76E000EF86E00EE10F010EE0AF036
:1002F8000900F5CFEEFFE550E150FAE100EE1AF003
:10030800080EEE6AE806FDE12290229200012EEF27
:1003180000F00600F2A293EF01F095EF01F09AEFDA
:1003280001F0000E1B6E020E1A6EF292F0A29FEF01
:1003380001F0A1EF01F0A6EF01F0000E1B6E010E17
:100348001A6EF09222921100938093829384F2881D
:10035800F292F086F088F090F092F09CF08EF19C8A
:10036800F19AF198D08EF28EF28C12003F065B4F14
:06037800666D7D077F6742
:020000040020DA
:08000000FFFFFFFFFFFFFFFF00
:020000040030CA
:0E000000000C181EFF8180FF0FC00FE00F40A4
:00000001FF
