:020000040000FA
:0400000013EF00F00A
:0600080019826FED01F00A
:100018001980E0CF0EF00EC0E0FF19901000A9EF94
:1000280001F0000E956ECAEC00F0C0EC01F0D0ECC7
:1000380001F00CBE29EF00F00C5009E10A0E0B5C30
:10004800D8A029EF00F02BEF00F031EF00F0000E00
:100058000C6E000E0B6E094A0A2A0ABE3DEF00F02C
:100068000A5009E1060E095CD8A03DEF00F03FEF09
:1000780000F045EF00F0000E0A6E000E096E074A08
:10008800082A08BE51EF00F0085009E10A0E075C83
:10009800D8A051EF00F053EF00F059EF00F0000E38
:1000A800086E000E076E054A062A06BE65EF00F0C8
:1000B800065009E1060E055CD8A065EF00F067EF71
:1000C80000F06DEF00F0000E066E000E056E034A9C
:1000D800042A04BE79EF00F0045009E1040E035C21
:1000E800D8A079EF00F07BEF00F081EF00F0000E70
:1000F800046E000E036E014A022A02BE8DEF00F064
:10010800025009E1030E015CD8A08DEF00F08FEFDB
:1001180000F093EF00F0000E026E000E016E000E6C
:10012800126E000E116E000E146E000E136E91EC1E
:1001380001F00150300F3AEC01F00350300F3AEC67
:1001480001F03A0E3AEC01F00550300F3AEC01F0AC
:100158000750300F3AEC01F03A0E3AEC01F0095032
:10016800300F3AEC01F00B50300F3AEC01F0070E6B
:10017800166E580E156E5A0EE82EFED7152EFCD7A1
:10018800162EFAD71DEF00F013EF00F0000E956E53
:10019800000E8C6E300E05EC01F0030E126E8A0E06
:1001A800116E560EE82EFED7112EFCD7122EFAD756
:1001B800300E05EC01F0030E126E8A0E116E560E0B
:1001C800E82EFED7112EFCD7122EFAD7320E05ECE8
:1001D80001F0280E05EC01F00C0E05EC01F0010E03
:1001E80005EC01F0060E05EC01F0030E126E8A0E06
:1001F800116E560EE82EFED7112EFCD7122EFAD706
:100208001200106E8C500F0B8C6E1050F00B8C106F
:100218008C6E8C94070E0F6E7D0EE82EFED70F2E77
:10022800FCD700F08C86070E0F6E7D0EE82EFED7E9
:100238000F2EFCD700F08C960F0E8C161038F00B92
:10024800F00B8C128C94070E0F6E7D0EE82EFED7E5
:100258000F2EFCD700F08C86070E0F6E7D0EE82E51
:10026800FED70F2EFCD700F08C961200106E8C5023
:100278000F0B8C6E1050F00B8C108C6E8C84070E4C
:100288000F6E7D0EE82EFED70F2EFCD700F08C8661
:10029800070E0F6E7D0EE82EFED70F2EFCD700F04E
:1002A8008C960F0E8C161038F00BF00B8C128C8479
:1002B800070E0F6E7D0EE82EFED70F2EFCD700F02E
:1002C8008C86070E0F6E7D0EE82EFED70F2EFCD7FC
:1002D80000F08C9612000600CE50D8A476EF01F0FC
:1002E80078EF01F08EEF01F08CB07DEF01F080EF38
:1002F80001F0010E81EF01F0000EFF0A0D6E8C5027
:100308000D18FE0B0D188C6E800ECF6E000ECE6E83
:100318000B4A0C2A9E901992110012BE9CEF01F014
:10032800125008E11104D8A09CEF01F09EEF01F0F3
:10033800A4EF01F01350C00F05EC01F0A8EF01F095
:100348001350800F05EC01F01200940EF66E030EA8
:10035800F76E000EF86E00EE01F010EE0CF00900DA
:10036800F5CFEEFFE550E150FAE1186A176A1990E7
:100378001992000115EF00F0800ECF6E000ECE6EC0
:100388000F0ECD6E9D809E909F801200020003008C
:100398000500090005000800D08EF28EF28C1200CC
:020000040020DA
:08000000FFFFFFFFFFFFFFFF00
:020000040030CA
:0E000000000C181EFF8180FF0FC00FE00F40A4
:00000001FF
