:020000040000FA
:0400000030EF00F0ED
:06000800078255ED00F037
:100018000780D8CF02F0E8CF03F0E0CF04F08CB02F
:1000280018EF00F01BEF00F0010E1CEF00F0000EBF
:10003800FF0A016E8C500118FE0B01188C6EB30E6E
:10004800D76EB40ED66EF29404C0E0FF03C0E8FF8A
:1000580002C0D8FF079010004AEF00F0D59CD59A4F
:10006800D596070ED512B30ED76EB40ED66EF28A99
:10007800F294F194D58E1200000E956E32EC00F0D9
:1000880051EC00F046EF00F030EF00F0066A056A28
:1000980007900792000140EF00F0D08EF28EF28CAC
:0800A80012000600079211008E
:020000040020DA
:08000000FFFFFFFFFFFFFFFF00
:020000040030CA
:0E000000000C181EFF8180FF0FC00FE00F40A4
:00000001FF
