:020000040000FA
:040000003EEF00F0DF
:060008000F82F8ED04F088
:100018000F80D8CF02F0E8CF03F0E0CF04F03C0E19
:10002800D66E0B4A0C2A0A0E0B180C10D8A41FEF18
:1000380000F021EF00F035EF00F0000E0C6E000E1E
:100048000B6E8CB02AEF00F02DEF00F0010E2EEFB2
:1000580000F0000EFF0A016E8C500118FE0B01180B
:100068008C6EF29404C0E0FF03C0E8FF02C0D8FF22
:080078000F90100053EF05F09A
:0F08000000486F6C61203A440057454C5300008C
:10081000000E956E60EC05F053EC04F06CEC05F006
:100820000D040E10D8A417EF04F019EF04F029EF0F
:1008300004F0000E086E010E076E000E0A6E050E23
:10084000096E3BEC05F0010E076E080E086E1CECFD
:1008500005F0020E0D180E10D8A431EF04F033EF9E
:1008600004F043EF04F0000E086E000E076E000E59
:100870000A6E090E096E3BEC05F0090E076E080EB4
:10088000086E1CEC05F00D500E10D8A44AEF04F0D1
:100890004CEF04F010EF04F0010E8EEC04F010EFBA
:1008A00004F03EEF00F0000E956E000E8C6E300EE0
:1008B0008EEC04F0030E086E8A0E076E560EE82EBC
:1008C000FED7072EFCD7082EFAD7300E8EEC04F098
:1008D000030E086E8A0E076E560EE82EFED7072E00
:1008E000FCD7082EFAD7320E8EEC04F0280E8EECD0
:1008F00004F00C0E8EEC04F0010E8EEC04F0060EEB
:100900008EEC04F0030E086E8A0E076E560EE82E6B
:10091000FED7072EFCD7082EFAD71200066E8C5091
:100920000F0B8C6E0650F00B8C108C6E8C94070E97
:10093000056E7D0EE82EFED7052EFCD700F08C86C6
:10094000070E056E7D0EE82EFED7052EFCD700F0B3
:100950008C960F0E8C160638F00BF00B8C128C94C4
:10096000070E056E7D0EE82EFED7052EFCD700F093
:100970008C86070E056E7D0EE82EFED7052EFCD761
:1009800000F08C961200066E8C500F0B8C6E065089
:10099000F00B8C108C6E8C84070E056E7D0EE82E8D
:1009A000FED7052EFCD700F08C86070E056E7D0E57
:1009B000E82EFED7052EFCD700F08C960F0E8C1675
:1009C0000638F00BF00B8C128C84070E056E7D0E32
:1009D000E82EFED7052EFCD700F08C86070E056E9C
:1009E0007D0EE82EFED7052EFCD700F08C96120067
:1009F00006000D4A0E2A0EBE07EF05F00E5009E163
:100A0000030E0D5CD8A007EF05F009EF05F00FEF1E
:100A100005F0D59E8C90000E0E6E000E0D6E0D50E2
:100A20000E10D8A416EF05F018EF05F019EF05F039
:100A3000D58EF2920F9211002CEF05F0A60EE82E43
:100A4000FED700D007C0F6FF08C0F7FF0800F5503A
:100A5000C3EC04F0074A082A07C0F6FF08C0F7FFF6
:100A60000800F5500009D8A438EF05F03AEF05F07A
:100A70001EEF05F0120008BE46EF05F0085008E131
:100A80000704D8A046EF05F048EF05F04EEF05F05B
:100A90000950C00F8EEC04F052EF05F00950800FA2
:100AA0008EEC04F012000E6A0D6A0C6A0B6A0F904D
:100AB0000F92000EF86E080EF76E000108EF04F0BA
:100AC000D58CD59AD596070ED5123C0ED66EF28AE5
:100AD000F294F194D59E12009380F288F292F19CE8
:080AE000D08EF28EF28C1200A0
:020000040020DA
:08000000FFFFFFFFFFFFFFFF00
:020000040030CA
:0E000000000C181EFF8180FF0FC00FE00F40A4
:00000001FF
