:020000040000FA
:0400000003EF05F015
:0708000000686F6C6100004D
:10080800000E956E000E8C6E300E74EC04F0030E24
:10081800046E8A0E036E560EE82EFED7032EFCD702
:10082800042EFAD7300E74EC04F0030E046E8A0E10
:10083800036E560EE82EFED7032EFCD7042EFAD7E9
:10084800320E74EC04F0280E74EC04F00C0E74EC08
:1008580004F0010E74EC04F0060E74EC04F0030EC0
:10086800046E8A0E036E560EE82EFED7032EFCD7B2
:10087800042EFAD71200026E8C500F0B8C6E0250A9
:10088800F00B8C108C6E8C84070E016E7D0EE82E9A
:10089800FED7012EFCD700F08C86070E016E7D0E68
:1008A800E82EFED7012EFCD700F08C960F0E8C1682
:1008B8000238F00BF00B8C128C84070E016E7D0E43
:1008C800E82EFED7012EFCD700F08C86070E016EAD
:1008D8007D0EE82EFED7012EFCD700F08C96120074
:1008E800026E8C500F0B8C6E0250F00B8C108C6EBD
:1008F8008C94070E016E7D0EE82EFED7012EFCD7D4
:1009080000F08C86070E016E7D0EE82EFED7012EB4
:10091800FCD700F08C960F0E8C160238F00BF00BFB
:100928008C128C94070E016E7D0EE82EFED7012ED8
:10093800FCD700F08C86070E016E7D0EE82EFED7E0
:10094800012EFCD700F08C96120004EC04F0000E87
:10095800046E000E036E000E066E0B0E056EEBECB9
:1009680004F0650E3FEC04F0000E046E010E036EF9
:10097800000E066E030E056EEBEC04F0010E036E1E
:10098800080E046ECCEC04F0C8EF04F000EF00F0A1
:10099800DCEF04F0A60EE82EFED700D003C0F6FF69
:1009A80004C0F7FF0800F5503FEC04F0034A042A9E
:1009B80003C0F6FF04C0F7FF0800F5500009D8A4EB
:1009C800E8EF04F0EAEF04F0CEEF04F0120004BE02
:1009D800F6EF04F0045008E10304D8A0F6EF04F0A1
:1009E800F8EF04F0FEEF04F00550C00F74EC04F0CB
:1009F80002EF05F00550800F74EC04F01200000EB1
:0C0A0800F86E080EF76E0001A9EF04F074
:020000040020DA
:08000000FFFFFFFFFFFFFFFF00
:020000040030CA
:0E000000000C181EFF8180FF0FC00FE00F40A4
:00000001FF
