:020000040000FA
:0400000097EF3FF047
:107F2E00036A0001AEEF3FF00C0ECB6E000EBE6E7C
:107F3E00BD50CF0B1009BD6E9494CA84CA50FC0B71
:107F4E000209CA6EBD50F00B0C09BD6E12009BECFF
:107F5E003FF09380938281B0B7EF3FF0B9EF3FF0DF
:107F6E00D0EF3FF0032A340E0318D8A4C1EF3FF030
:107F7E00C3EF3FF0C5EF3FF0330E036E020E026EFD
:107F8E00450E016EAA0EE82EFED7012EFCD7022E4C
:107F9E00FAD781B2D5EF3FF0D7EF3FF0EDEF3FF0DC
:107FAE0003060350D8A4DEEF3FF0E0EF3FF0E2EF20
:107FBE003FF0010E036E020E026E450E016EAA0E0A
:107FCE00E82EFED7012EFCD7022EFAD703C001F001
:107FDE00013AF00E0116300E0116BD500F0B0110B6
:107FEE00BD6E0340E8423F0BBE6EB2EF3FF000EFB6
:027FFE0000F091
:020000040020DA
:08000000FFFFFFFFFFFFFFFF00
:020000040030CA
:0E000000000C181EFF8180FF0FC00FE00F40A4
:00000001FF
