:020000040000FA
:0400000041EF00F0DC
:060008005A8229ED1DF0F3
:100018005A80D8CF02F0E8CF03F0E0CF04F08CB0DC
:1000280018EF00F01BEF00F0010E1CEF00F0000EBF
:10003800FF0A016E8C500118FE0B01188C6E00012E
:10004800CA07D8A0CB07CBBF34EF00F0CB5106E1ED
:10005800CA05D8B032EF00F034EF00F038EF00F006
:10006800000ECB6F030ECA6FF09004C0E0FF03C010
:0E007800E8FF02C0D8FF5A90100010EF1DF0F4
:10080000004953203D20252E3266006573203D208F
:10081000252E326600494E46004E414E00696E66F6
:09082000006E616E006C660000C0
:10082A00000E00017B6F000E7A6F3AC08CF03BC05D
:10083A008DF03CC08EF03DC08FF08FBF29EF04F0E1
:10084A0027EF04F03FEF04F0000E7B6F010E7A6F82
:10085A008CC005F08DC006F08EC007F08FC008F07E
:10086A00A1EC1CF005C08CF006C08DF007C08EF01C
:10087A0008C08FF0000E0001936F000E926F54C0F3
:10088A007FF055C080F07A517B11D8A44FEF04F065
:10089A0051EF04F058EF04F058A456EF04F058EF63
:1008AA0004F072EF04F07A517B11D8A45FEF04F0E0
:1008BA0061EF04F067EF04F0000E656F2B0E646FB2
:1008CA006BEF04F0000E656F2D0E646F64C000F1CB
:1008DA00924B932B7F07D8A080078CC005F08DC060
:1008EA0006F08EC007F08FC008F0B9EC17F00504C7
:1008FA000610D8A483EF04F085EF04F0DCEF04F0CF
:10090A00BF0E3F6EFF0E406E3E50416E426A3F5030
:10091A0041264050422242500AE11A0E415CD8A0B8
:10092A0099EF04F09CEF04F0010E9DEF04F0000E25
:10093A000001666F676B66516711D8B4A7EF04F0C0
:10094A00A9EF04F0B7EF04F0000E9225056E010E30
:10095A009321066E150E076E080E086E7EEC1BF0CC
:10096A00C3EF04F0000E9225056E010E9321066E68
:10097A001D0E076E080E086E7EEC1BF00001FD0EC0
:10098A007F27FF0E802338C015F039C016F0000EFD
:10099A00176E010E186E7FC019F080C01AF06AEC4B
:1009AA0019F015C038F016C039F0EDEF09F08CC017
:1009BA0005F08DC006F08EC007F08FC008F0B9ECC4
:1009CA0017F005500610D8A4EDEF04F0EFEF04F08D
:1009DA002FEF05F0BF0E3F6EFF0E406E3E50416E88
:1009EA00426A3F5041264050422242500AE11A0EC2
:1009FA00415CD8A003EF05F006EF05F0010E07EF02
:100A0A0005F0000E0001686F696B68516911D8B46E
:100A1A0011EF05F013EF05F021EF05F0000E922516
:100A2A00056E010E9321066E190E076E080E086EEA
:100A3A007EEC1BF0C3EF04F0000E9225056E010E4A
:100A4A009321066E210E076E080E086E7EEC1BF0CF
:100A5A00C3EF04F0000E0001946F000E956F800E34
:100A6A00966F3F0E976F000E916F000E906F8CC0BD
:100A7A0005F08DC006F08EC007F08FC008F0000E9A
:100A8A00096E000E0A6E000E0B6E000E0C6E23EC41
:100A9A001AF0D8B053EF05F055EF05F0D8EF05F08E
:100AAA0074EF05F094C013F095C014F096C015F0D9
:100ABA0097C016F0000E176E000E186E200E196EF3
:100ACA00410E1A6E82EC0EF013C094F014C095F029
:100ADA0015C096F016C097F00001904B912B8CC070
:100AEA002CF08DC02DF08EC02EF08FC02FF0000E8E
:100AFA00176E000E186E200E196E410E1A6E94C0F3
:100B0A0013F095C014F096C015F097C016F082EC59
:100B1A000EF013C030F014C031F015C032F016C018
:100B2A0033F037EC17F0D8B09DEF05F09FEF05F0E2
:100B3A0057EF05F0BFEF05F094C005F095C006F039
:100B4A0096C007F097C008F0000E096E000E0A6EF4
:100B5A00200E0B6E410E0C6E97EC10F005C094F04F
:100B6A0006C095F007C096F008C097F000019007FC
:100B7A00D8A091078CC02CF08DC02DF08EC02EF01D
:100B8A008FC02FF094C030F095C031F096C032F08B
:100B9A0097C033F037EC17F0D8A0D6EF05F0D8EFAE
:100BAA0005F0A1EF05F03EC00BF00C6A4EEC1BF00D
:100BBA000B500001816F81C07EF0670E8119D8A4A5
:100BCA00E9EF05F0EBEF05F011EF06F0565057107C
:100BDA00D8A4F2EF05F0F4EF05F0F8EF05F0000EF7
:100BEA00576E010E566E57BE05EF06F0575006E1D6
:100BFA005604D8B003EF06F005EF06F00BEF06F047
:100C0A00000E7D6F060E7C6F1AEF06F056C07CF060
:100C1A0057C07DF01AEF06F057BE16EF06F018EF30
:100C2A0006F005EF06F00BEF06F0670E8119D8A45F
:100C3A0021EF06F023EF06F052EF06F091AF31EF05
:100C4A0006F0FC0E905DFF0E9159D8A02FEF06F02A
:100C5A0031EF06F050EF06F0FF0E3F6EFF0E406ECA
:100C6A007CC041F07DC042F03F50412640504222B4
:100C7A009051415C4250800A436E9151800A435818
:100C8A00D8A04AEF06F04CEF06F050EF06F0660ED9
:100C9A007E6F52EF06F0650E7E6F7CC074F07DC0E9
:100CAA0075F0670E8119D8A45DEF06F05FEF06F0C4
:100CBA006FEF06F0660E7E19D8A466EF06F068EFAD
:100CCA0006F071EF06F091BF6FEF06F06DEF06F0D8
:100CDA0071EF06F0744B752B660E7E19D8A478EF67
:100CEA0006F07AEF06F09AEF06F091BF81EF06F070
:100CFA007FEF06F08DEF06F0000E946F000E956FF1
:100D0A00800E966F3F0E976F000E916F000E906FD8
:100D1A00670E8119D8B494EF06F096EF06F09AEFB1
:100D2A0006F09051742791517523000E8B6F000EB7
:100D3A008A6F8CC082F08DC083F08EC084F08FC021
:100D4A0085F094C060F095C061F096C062F097C0DB
:100D5A0063F02BEF07F082C005F083C006F084C071
:100D6A0007F085C008F094C009F095C00AF096C053
:100D7A000BF097C00CF097EC10F005C01EF006C0FF
:100D8A001FF007C020F008C021F009EC14F01EC0C3
:100D9A0086F01FC087F020C088F021C089F086C085
:100DAA0005F087C006F088C007F089C008F0B4ECE7
:100DBA0016F005C078F006C079F082C02CF083C026
:100DCA002DF084C02EF085C02FF094C017F095C086
:100DDA0018F096C019F097C01AF086C013F087C0B1
:100DEA0014F088C015F089C016F082EC0EF013C01A
:100DFA0030F014C031F015C032F016C033F0FEECFA
:100E0A001BF02CC082F02DC083F02EC084F02FC0BE
:100E1A0085F094C005F095C006F096C007F097C01B
:100E2A0008F0000E096E000E0A6E200E0B6E410EBF
:100E3A000C6E97EC10F005C094F006C095F007C050
:100E4A0096F008C097F000018A4B8B2B74518A5D8B
:100E5A008B51800A3F6E7551800A3F58D8A038EFEF
:100E6A0007F03AEF07F0B0EF06F094C013F095C020
:100E7A0014F096C015F097C016F0000E176E000E0B
:100E8A00186EA00E196E400E1A6E82EC0EF013C088
:100E9A0086F014C087F015C088F016C089F082C0A9
:100EAA002CF083C02DF084C02EF085C02FF086C0B0
:100EBA0030F087C031F088C032F089C033F037ECA7
:100ECA0017F0D8B06BEF07F06DEF07F078EF07F087
:100EDA00000E0001866F000E876F000E886F000EED
:100EEA00896FA1EF07F082C005F083C006F084C0C5
:100EFA0007F085C008F086C009F087C00AF088C0EC
:100F0A000BF089C00CF023EC1AF0D8A08FEF07F091
:100F1A0091EF07F0A1EF07F0000178B197EF07F022
:100F2A0099EF07F0A1EF07F0000E866F000E876FAA
:100F3A00000E886F000E896F8CC005F08DC006F018
:100F4A008EC007F08FC008F086C009F087C00AF08B
:100F5A0088C00BF089C00CF0EEEC09F005C082F0F5
:100F6A0006C083F007C084F008C085F060C094F022
:100F7A0061C095F062C096F063C097F0650E0001FB
:100F8A007E19D8B4CBEF07F0CDEF07F0D3EF07F017
:100F9A0090C076F091C077F0D7EF07F0000E776F28
:100FAA00000E766F000E736F000E726F000E716F77
:100FBA00000E706F000E8B6F000E8A6FD3EF08F071
:100FCA0082C005F083C006F084C007F085C008F02F
:100FDA0094C009F095C00AF096C00BF097C00CF0C7
:100FEA0097EC10F005C01EF006C01FF007C020F0F5
:100FFA0008C021F009EC14F01EC086F01FC087F06B
:10100A0020C088F021C089F086C005F087C006F0AC
:10101A0088C007F089C008F0B4EC16F005C078F073
:10102A0006C079F058B81CEF08F01EEF08F03CEF44
:10103A0008F0000178517911D8A426EF08F028EFBA
:10104A0008F03CEF08F0670E8119D8A42FEF08F0DA
:10105A0031EF08F03CEF08F077BF38EF08F036EFD1
:10106A0008F03CEF08F0704B712B87EF08F0000195
:10107A0072517311D8A444EF08F046EF08F070EFEC
:10108A0008F077BF4DEF08F04BEF08F070EF08F06B
:10109A00000E9225D96E010E9321DA6E2E0EDF6EA6
:1010AA00924B932B7F07D8A08007000E736F010E17
:1010BA00726F70EF08F0000E9225D96E010E93211F
:1010CA00DA6E300EDF6E924B932B7F07D8A0800723
:1010DA007007D8A0710770517111D8A477EF08F082
:1010EA0079EF08F060EF08F0000E9225D96E010E34
:1010FA009321DA6E7851300FDF6E924B932B7F0774
:10110A00D8A0800782C02CF083C02DF084C02EF0B6
:10111A0085C02FF094C017F095C018F096C019F04A
:10112A0097C01AF086C013F087C014F088C015F073
:10113A0089C016F082EC0EF013C030F014C031F002
:10114A0015C032F016C033F0FEEC1BF02CC082F052
:10115A002DC083F02EC084F02FC085F094C005F016
:10116A0095C006F096C007F097C008F0000E096E09
:10117A00000E0A6E200E0B6E410E0C6E97EC10F0EC
:10118A0005C094F006C095F007C096F008C097F025
:10119A0000017607D8A077078A4B8B2B74518A5D9A
:1011AA008B51800A3F6E7551800A3F58D8B0E0EFE4
:1011BA0008F0E2EF08F0F0EF08F093BFEEEF08F066
:1011CA00935109E14B0E925DD8A0EEEF08F0F0EFD3
:1011DA0008F0E5EF07F072517311D8A4F7EF08F0A1
:1011EA00F9EF08F00AEF09F058A8FEEF08F000EF4F
:1011FA0009F00AEF09F0000E9225D96E010E93212B
:10120A00DA6E2E0EDF6E924B932B000E9225D96E5C
:10121A00010E9321DA6E000EDF6E650E7E19D8A4D8
:10122A0019EF09F01BEF09F0C8EF04F0000E8B6FFD
:10123A004F0E8A6F000E8A25D96E010E8B21DA6E47
:10124A00000EDF6E000E7B6F000E7A6F91BF32EFD9
:10125A0009F030EF09F03AEF09F0000E7B6F010E4A
:10126A007A6F906D911FD8B0912B000E7D6F020E90
:10127A007C6F6BEF09F08A07D8A08B07000E8A25CE
:10128A00D96E010E8B21DA6E90C005F091C006F07E
:10129A00000E086E0A0E076ECBEC19F00550300FDF
:1012AA00DF6E90C005F091C006F0000E086E0A0EBF
:1012BA00076E08EC19F005C090F006C091F0000125
:1012CA007C07D8A07D077F07D8A08007905191118D
:1012DA00D8A472EF09F074EF09F040EF09F07DBF6E
:1012EA0081EF09F07D5106E17C05D8B07FEF09F066
:1012FA0081EF09F040EF09F08A07D8A08B077A51ED
:10130A007B11D8A48BEF09F08DEF09F093EF09F068
:10131A00000E6B6F2B0E6A6F97EF09F0000E6B6F62
:10132A002D0E6A6F000E8A25D96E010E8B21DA6E98
:10133A006AC0DFFF7F07D8A080078A07D8A08B077B
:10134A00BF0E3F6EFF0E406E3E50416E426A3F50E6
:10135A0041264050422242500AE11A0E415CD8A06E
:10136A00B9EF09F0BCEF09F0010EBDEF09F0000E6C
:10137A006E6F6F6B6E516F11D8A4C6EF09F0C8EF8C
:10138A0009F0CEEF09F0000E6D6F650E6C6FD2EFAB
:10139A0009F0000E6D6F450E6C6F000E8A25D96E2E
:1013AA00010E8B21DA6E6CC0DFFF7F07D8A08007A1
:1013BA00000E9225056E010E9321066E000E8A25F7
:1013CA00076E010E8B21086E7EEC1BF0C8EF04F04D
:1013DA0012000850800B116E08500824136E07AED5
:1013EA00F9EF09F0FBEF09F0FCEF09F01380135055
:1013FA00D8B402EF0AF004EF0AF019EF0AF0132842
:10140A00D8A40AEF0AF00CEF0AF014EF0AF0000E63
:10141A00056E000E066E000E076E000E086E078E31
:10142A00000E086E21EF0AF0000E056E000E066E21
:10143A00000E076E000E086E0C50800B126E1150D3
:10144A001218D8B42BEF0AF02DEF0AF02EEF0AF09B
:10145A00118C0C500C24126E0BAE36EF0AF038EFDA
:10146A000AF039EF0AF012801250D8B43FEF0AF0AE
:10147A0041EF0AF056EF0AF01228D8A447EF0AF013
:10148A0049EF0AF051EF0AF0000E096E000E0A6EDB
:10149A00000E0B6E000E0C6E0B8E000E0C6E5EEFC5
:1014AA000AF0000E096E000E0A6E000E0B6E000E98
:1014BA000C6E1350125CD8B065EF0AF067EF0AF0B1
:1014CA008EEF0AF011AC6CEF0AF06EEF0AF070EFD3
:1014DA000AF0800E111A13C014F012C013F014C0CF
:1014EA0012F005C014F009C005F014C009F006C0D6
:1014FA0014F00AC006F014C00AF007C014F00BC0BA
:10150A0007F014C00BF008C014F00CC008F014C0A7
:10151A000CF0000E146E135012C00DF00E6A0D5E20
:10152A00000E0E5A0EBEA3EF0AF00E5009E11A0E73
:10153A000D5CD8A0A3EF0AF0A5EF0AF0DCEF0AF0E1
:10154A000550061007100810D8A4AEEF0AF0B1EF44
:10155A000AF0010EB2EF0AF0000E146E000E056ECC
:10156A00000E066E000E076E000E086E12C013F013
:10157A00E5EF0AF014A0C4EF0AF0C6EF0AF0CCEFC8
:10158A000AF0D89014300109146ECEEF0AF0D89000
:10159A00143205A0D3EF0AF0D5EF0AF0D6EF0AF01D
:1015AA00148E08340832073206320532132A1250D2
:1015BA00135CD8A0E3EF0AF0E5EF0AF0BFEF0AF0F8
:1015CA0011BCEAEF0AF0ECEF0AF02CEF0BF0135023
:1015DA00D8A4F2EF0AF0F4EF0AF0FEEF0AF0000ED8
:1015EA00056E000E066E000E076E000E086E4DEFB9
:1015FA000CF0095005260A5006220B5007220C50FF
:10160A00082208A00BEF0BF00DEF0BF0B9EF0BF06F
:10161A0014A012EF0BF014EF0BF01AEF0BF0D890A6
:10162A0014300109146E1CEF0BF0D890143205A087
:10163A0021EF0BF023EF0BF024EF0BF0148E08349C
:10164A000832073206320532132AB9EF0BF0095075
:10165A00055C0A5006580B5007580850800A0D6E50
:10166A000C50800A0D58D8B03DEF0BF03FEF0BF04D
:10167A006AEF0BF00550095C0D6E06500A580E6EA3
:10168A0007500B580F6E08500C58106EFF0E0D24A1
:10169A00056EFF0E0E20066EFF0E0F20076EFF0E60
:1016AA001020086E800E111A146C1450D8A460EF22
:1016BA000BF062EF0BF072EF0BF0010E0526000E35
:1016CA0006220722082272EF0BF00950055E0A5023
:1016DA00065A0B50075A0C50085A055006100710A4
:1016EA000810D8A47BEF0BF07DEF0BF0B2EF0BF0F4
:1016FA001450D8A483EF0BF085EF0BF0B2EF0BF088
:10170A00000E056E000E066E000E076E000E086EC5
:10171A004DEF0CF0D890053606360736083614AE6B
:10172A0099EF0BF09BEF0BF09CEF0BF0058014A0E8
:10173A00A1EF0BF0A3EF0BF0A7EF0BF0D880143654
:10174A00A9EF0BF0D89014361350D8B4AFEF0BF0C2
:10175A00B1EF0BF0B2EF0BF0130607AEB7EF0BF0D9
:10176A00B9EF0BF08FEF0BF0000E126E14AEC0EF54
:10177A000BF0C2EF0BF0DAEF0BF014C00DF07F0E96
:10178A000D16D8B4CBEF0BF0CDEF0BF0D1EF0BF079
:10179A00010E126EDAEF0BF005A0D6EF0BF0D8EFC0
:1017AA000BF0DAEF0BF0CDEF0BF01250D8B4E0EFFC
:1017BA000BF0E2EF0BF00DEF0CF0010E0526000E18
:1017CA0006220722082208A0EDEF0BF0EFEF0BF03C
:1017DA000DEF0CF005C00DF006C00EF007C00FF0BB
:1017EA0008C010F0103410320F320E320D320DC014
:1017FA0005F00EC006F00FC007F010C008F013285D
:10180A00D8B40AEF0CF00CEF0CF00DEF0CF0132A21
:10181A001328D8B413EF0CF015EF0CF01DEF0CF0F1
:10182A001350D8A41BEF0CF01DEF0CF02FEF0CF0A7
:10183A00000E056E000E066E000E076E000E086E94
:10184A001350D8A42BEF0CF02DEF0CF02FEF0CF067
:10185A00000E116E13A034EF0CF036EF0CF039EFD6
:10186A000CF0078E3AEF0CF0079ED8901330086EF2
:10187A0011AE42EF0CF044EF0CF045EF0CF0088E7D
:10188A0005C005F006C006F007C007F008C008F05A
:10189A00120046C0D9FF47C0DAFFDECFF6FFDDCF20
:1018AA00F7FF0800F550250AD8A45EEF0CF060EFA8
:1018BA000CF066EF0EF046C0D9FF47C0DAFFDE2A09
:1018CA00000EDD22000E556E000E546E54C058F004
:1018DA0055C059F05668576846C0D9FF47C0DAFF65
:1018EA00DECFF6FFDDCFF7FF0800F5502E0AD8A4A9
:1018FA0081EF0CF083EF0CF001EF0DF0000E576E44
:10190A00000E566E46C0D9FF47C0DAFFDE2A000E27
:10191A00DD2246C0D9FF47C0DAFFDECFF6FFDDCFB2
:10192A00F7FF0800F5502A0AD8A49EEF0CF0A0EFA2
:10193A000CF0BDEF0CF046C0D9FF47C0DAFFDE2A33
:10194A00000EDD2248C0D9FF49C0DAFFDFCF4AF0D6
:10195A00020EDE26DFCF4BF0000EDD224AC0D9FF91
:10196A004BC0DAFFDECF56F0DDCF57F001EF0DF0B6
:10197A0046C0D9FF47C0DAFFDECF0CF0DDCF0DF04D
:10198A00ECEC15F00CC056F00DC057F0D4EF0CF08B
:10199A0046C0D9FF47C0DAFFDE2A000EDD22D00E8C
:1019AA004A6EFF0E4B6E46C0D9FF47C0DAFFDECF44
:1019BA00F6FFDDCFF7FF0800F5504C6E4D6A4A502E
:1019CA004C264B504D224D500AE10A0E4C5CD8A0D1
:1019DA00F1EF0CF0F4EF0CF0010EF5EF0CF0000E45
:1019EA000001986F996B98519911D8A4FFEF0CF0E8
:1019FA0001EF0DF0CDEF0CF046C0D9FF47C0DAFF7A
:101A0A00DECFF6FFDDCFF7FF0800F5500B6E0C6A4C
:101A1A004EEC1BF00B5000019C6F9C51D8B418EF90
:101A2A000DF01AEF0DF054EF0DF046C0D9FF47C084
:101A3A00DAFFDECF4AF0DDCF4BF0010E4A26000E68
:101A4A004B224AC0F6FF4BC0F7FF0800F5500B6E59
:101A5A000C6A4EEC1BF00B5000019D6F9D51D8B4DF
:101A6A0039EF0DF03BEF0DF054EF0DF046C0D9FF02
:101A7A0047C0DAFFDECF4AF0DDCF4BF0020E4A262E
:101A8A00000E4B224AC0F6FF4BC0F7FF0800F55084
:101A9A000B6E0C6A4EEC1BF00B5000019E6F660E2B
:101AAA009C19D8A45BEF0DF05DEF0DF09DEF0DF0E2
:101ABA0046C0D9FF47C0DAFFDECFF6FFDDCFF7FF1A
:101ACA000800F5CFA3F046C0D9FF47C0DAFFDE2AE7
:101ADA00000EDD2248C0D9FF49C0DAFFDFCF4AF045
:101AEA00040EDE26DFCF4BF0000EDD224AC0D9FFFE
:101AFA004BC0DAFFDECF9FF0DECFA0F0DECFA1F041
:101B0A00DECFA2F044C038F045C039F09FC03AF0A9
:101B1A00A0C03BF0A1C03CF0A2C03DF0A3C03EF083
:101B2A0015EC04F038C044F039C045F081EF0EF0EE
:101B3A009C0E056E000E066E250E076E080E086EC8
:101B4A00000E0A6E020E096E38EC18F005500610E7
:101B5A00D8A4B2EF0DF0B4EF0DF030EF0EF046C09E
:101B6A00D9FF47C0DAFFDECF4AF0DDCF4BF0010ED6
:101B7A004A26000E4B224AC0F6FF4BC0F7FF080068
:101B8A00F5CFA3F0BF0E4A6EFF0E4B6E46C0D9FFCB
:101B9A0047C0DAFFDECFF6FFDDCFF7FF0800F550CA
:101BAA004C6E4D6A4A504C264B504D224D500AE11C
:101BBA001A0E4C5CD8A0E4EF0DF0E7EF0DF0010E21
:101BCA00E8EF0DF0000E00019A6F9B6B9A519B1182
:101BDA00D8B4F2EF0DF0F4EF0DF00EEF0EF048C0AE
:101BEA00D9FF49C0DAFFDFCF4AF0040EDE26DFCF85
:101BFA004BF0000EDD224AC0D9FF4BC0DAFFDECF20
:101C0A009FF0DECFA0F0DECFA1F0DECFA2F026EF6C
:101C1A000EF048C0D9FF49C0DAFFDFCF4AF0040E00
:101C2A00DE26DFCF4BF0000EDD224AC0D9FF4BC0C3
:101C3A00DAFFDECF9FF0DECFA0F0DECFA1F0DECF5D
:101C4A00A2F0020E46C0D9FF47C0DAFFDE26000E18
:101C5A00DD2287EF0DF046C0D9FF47C0DAFFDECF9D
:101C6A00F6FFDDCFF7FF0800F550250AD8A440EFAC
:101C7A000EF042EF0EF059EF0EF046C0D9FF47C002
:101C8A00DAFFDE2A000EDD22000E066E250E056E34
:101C9A0044C007F045C008F0A3EC18F0000E456EEA
:101CAA00010E446E81EF0EF046C0D9FF47C0DAFF3D
:101CBA00DE2A000EDD22000E456E000E446E81EF14
:101CCA000EF046C0D9FF47C0DAFFDECFF6FFDDCF00
:101CDA00F7FF0800F550056E066A44C007F045C0D4
:101CEA0008F0A3EC18F046C0D9FF47C0DAFFDE2A95
:101CFA00000EDD2253EF0EF012001650800B1F6EFD
:101D0A0016501624256E15AE8DEF0EF08FEF0EF0DD
:101D1A0090EF0EF025802550D8B496EF0EF098EF8C
:101D2A000EF0ABEF0EF02528D8A49EEF0EF0A0EF30
:101D3A000EF0A8EF0EF0000E136E000E146E000ED9
:101D4A00156E000E166E158EB3EF0EF0000E136EA2
:101D5A00000E146E000E156E000E166E1A50800BD1
:101D6A001F1A1A501A24246E19AEBEEF0EF0C0EFD5
:101D7A000EF0C1EF0EF024802450D8B4C7EF0EF055
:101D8A00C9EF0EF0DCEF0EF02428D8A4CFEF0EF046
:101D9A00D1EF0EF0D9EF0EF0000E176E000E186E8E
:101DAA00000E196E000E1A6E198EE4EF0EF0000E78
:101DBA00176E000E186E000E196E000E1A6E245061
:101DCA00D8B4EAEF0EF0ECEF0EF0F4EF0EF0255077
:101DDA00D8A4F2EF0EF0F4EF0EF0FEEF0EF0000EC4
:101DEA00136E000E146E000E156E000E166E96EF30
:101DFA0010F019501302F3CF2AF0F4CF2BF02A5027
:101E0A00206E216A226A236A2B50266E276A286A64
:101E1A00296A18501402F3CF2AF0F4CF2BF02A5073
:101E2A002026000E2122222223222B502626000EB3
:101E3A0027222822292217501502F3CF2AF0F4CF9D
:101E4A002BF02A502026000E2122222223222B5058
:101E5A002626000E27222822292222C023F021C06A
:101E6A0022F020C021F0206A17501402F3CF2AF082
:101E7A00F4CF2BF02A5020262B502122000E2222AA
:101E8A00000E232218501302F3CF2AF0F4CF2BF0BE
:101E9A002A5020262B502122000E2222000E232215
:101EAA0022C023F021C022F020C021F0206A17505E
:101EBA001302F3CF2AF0F4CF2BF02A5020262B500E
:101ECA002122000E2222000E232219501402F3CFDF
:101EDA002AF0F4CF2BF02A5026262B502722000E68
:101EEA002822000E292218501502F3CF2AF0F4CF27
:101EFA002BF02A5026262B502722000E2822000ECD
:101F0A00292219501502F3CF2AF0F4CF2BF02A50C8
:101F1A001B6E2B501C6E1D6A1E6A1DC01EF01CC053
:101F2A001DF01BC01CF01B6A1B5026261C502722C2
:101F3A001D5028221E50292220C01BF021C01CF04F
:101F4A0022C01DF023C01EF0190EB1EF0FF0D89079
:101F5A001E321D321C321B32E82EACEF0FF01B5022
:101F6A0026261C5027221D5028221E50292222C014
:101F7A0023F021C022F020C021F0206A245025C07D
:101F8A001BF01C6A1B26000E1C22820E1B242A6EC2
:101F9A00FF0E1C202B6EE7EF0FF0D890263627365F
:101FAA002836293623AEDCEF0FF0DEEF0FF0DFEF35
:101FBA000FF02680D89020362136223623362A067C
:101FCA00D8A02B0628AEECEF0FF0EEEF0FF0D2EF11
:101FDA000FF0000E246E23AEF5EF0FF0F7EF0FF0BF
:101FEA001BEF10F0FF0E20141B6EFF0E21141C6E47
:101FFA00FF0E22141D6E7F0E23141E6E1B501C1022
:10200A001D101E10D8B40CEF10F00EEF10F012EFE6
:10201A0010F0010E246E1BEF10F026A017EF10F03F
:10202A0019EF10F01BEF10F00EEF10F02450D8B497
:10203A0021EF10F023EF10F047EF10F0010E2626E3
:10204A00000E27222822292229A02EEF10F030EF95
:10205A0010F047EF10F026C01BF027C01CF028C074
:10206A001DF029C01EF01E341E321D321C321B32D6
:10207A001BC026F01CC027F01DC028F01EC029F086
:10208A002A4A2B2A2BBE52EF10F02B5008E12A289D
:10209A00D8A052EF10F054EF10F05EEF10F0000EDF
:1020AA00266E000E276E800E286E7F0E296E8CEF2C
:1020BA0010F02BBE6BEF10F02B5006E12A04D8B0BB
:1020CA0069EF10F06BEF10F077EF10F0000E266E4C
:1020DA00000E276E000E286E000E296E000E1F6E6F
:1020EA008CEF10F02AC025F0FF0E2616FF0E2716D9
:1020FA007F0E2816000E291625A086EF10F088EF0D
:10210A0010F089EF10F0288ED8902530296E1F50D4
:10211A00291226C013F027C014F028C015F029C0D0
:10212A0016F012000850800B156E085008241C6E19
:10213A0007AEA2EF10F0A4EF10F0A5EF10F01C808C
:10214A001C50D8B4ABEF10F0ADEF10F0C2EF10F0A6
:10215A001C28D8A4B3EF10F0B5EF10F0BDEF10F0C3
:10216A00000E056E000E066E000E076E000E086E5B
:10217A00078E000E086ECAEF10F0000E056E000EF4
:10218A00066E000E076E000E086E0C50800B151AB4
:10219A000C500C241D6E0BAED5EF10F0D7EF10F0DB
:1021AA00D8EF10F01D801D50D8B4DEEF10F0E0EF2C
:1021BA0010F0F5EF10F01D28D8A4E6EF10F0E8EFC4
:1021CA0010F0F0EF10F0000E096E000E0A6E000E0D
:1021DA000B6E000E0C6E0B8E000E0C6EFDEF10F0E7
:1021EA00000E096E000E0A6E000E0B6E000E0C6ECB
:1021FA0009500A100B100C10D8A406EF11F008EFC2
:10220A0011F020EF11F0000E056E000E066E000EA2
:10221A00076E000E086E800E07127F0E0812155008
:10222A00081205C005F006C006F007C007F008C08E
:10223A0008F063EF12F01C50D8A426EF11F028EF33
:10224A0011F032EF11F0000E056E000E066E000E50
:10225A00076E000E086E63EF12F01D501CC00DF0E1
:10226A000E6A0D5E000E0E5A7F0E0D24166E000EBB
:10227A000E20176E05C011F006C012F007C013F049
:10228A0008C014F0000E056E000E066E000E076EF2
:10229A00000E086E000E186E000E196E000E1A6EF1
:1022AA00000E1B6E000E1D6E93EF11F01D50D8B478
:1022BA0061EF11F063EF11F07AEF11F0D890113657
:1022CA00123613361436D8900536063607360836CF
:1022DA001BAE72EF11F074EF11F075EF11F005807B
:1022EA00D890183619361A361B360950115C0A501E
:1022FA0012580B5013580C501458D8A087EF11F0ED
:10230A0089EF11F092EF11F01B8C0950115E0A50FF
:10231A00125A0B50135A0C50145A1D2A190E1D64C6
:10232A0099EF11F09BEF11F05BEF11F011501210C1
:10233A0013101410D8B4A4EF11F0A6EF11F0BEEFE9
:10234A0011F01880BEEF11F0D89005360636073620
:10235A0008361BAEB3EF11F0B5EF11F0B6EF11F07E
:10236A000580D890183619361A361B361606D8A0A4
:10237A00170607AEC3EF11F0C5EF11F0A9EF11F080
:10238A00000E1D6E1BAECCEF11F0CEEF11F0F2EF86
:10239A0011F0FF0E18140D6EFF0E19140E6EFF0EBB
:1023AA001A140F6E7F0E1B14106E0D500E100F10A4
:1023BA001010D8B4E3EF11F0E5EF11F0E9EF11F0E6
:1023CA00010E1D6EF2EF11F005A0EEEF11F0F0EF25
:1023DA0011F0F2EF11F0E5EF11F01D50D8B4F8EF5B
:1023EA0011F0FAEF11F01EEF12F0010E0526000EA1
:1023FA0006220722082208A005EF12F007EF12F0C2
:10240A001EEF12F005C00DF006C00EF007C00FF067
:10241A0008C010F0103410320F320E320D320DC0D7
:10242A0005F00EC006F00FC007F010C008F0164AFB
:10243A00172A17BE29EF12F0175008E11628D8A05C
:10244A0029EF12F02BEF12F036EF12F0000E176E92
:10245A001668000E056E000E066E000E076E000E60
:10246A00086E17BE43EF12F0175006E11604D8B0F3
:10247A0041EF12F043EF12F051EF12F0000E176E17
:10248A00000E166E000E056E000E066E000E076E2A
:10249A00000E086E000E156E16C01CF01CA058EF38
:1024AA0012F05AEF12F05DEF12F0078E5EEF12F0A3
:1024BA00079ED8901C30086E14EF11F012006DECD4
:1024CA001DF078EC1AF07DEC1DF0000E956E000EF2
:1024DA00946E8B8E020E0001CA19CB11D8A478EF24
:1024EA0012F07AEF12F0D6EF12F066EC1CF0010E41
:1024FA0021EC1CF005C0C8F006C0C9F0C8C005F040
:10250A00C9C006F0076A086A000E12EC15F005C089
:10251A0013F006C014F007C015F008C016F00A0E32
:10252A00176E280E186EA00E196E3B0E1A6E82ECEC
:10253A000EF013C0C2F014C0C3F015C0C4F016C028
:10254A00C5F0CC0E0001AA6F000EAB6F0B0EAC6F7C
:10255A00080EAD6FC2C0AEF0C3C0AFF0C4C0B0F0D9
:10256A00C5C0B1F0ACEC1BF0000E086E000E076E91
:10257A00000E0A6E000E096E42EC1DF0CC0E076EBC
:10258A00000E086ED9EC1CF0030E0001BD6F8A0E16
:10259A00BC6F550EE82EFED7BC2FFCD7BD2FFAD73D
:1025AA0000D0030E0001CA19CB11D8A4DFEF12F034
:1025BA00E1EF12F03BEF13F0000E21EC1CF005C026
:1025CA00C8F006C0C9F0C8C005F0C9C006F0076A5D
:1025DA00086A000E12EC15F005C013F006C014F0DC
:1025EA0007C015F008C016F00A0E176E280E186EEE
:1025FA00A00E196E3B0E1A6E82EC0EF013C0C2F0DA
:10260A0014C0C3F015C0C4F016C0C5F0CC0E00014A
:10261A00AA6F000EAB6F010EAC6F080EAD6FC2C091
:10262A00AEF0C3C0AFF0C4C0B0F0C5C0B1F0ACECFE
:10263A001BF0000E086E000E076E000E0A6E000EEA
:10264A00096E42EC1DF0CC0E076E000E086ED9EC36
:10265A001CF0030E0001BD6F8A0EBC6F550EE82EEA
:10266A00FED7BC2FFCD7BD2FFAD700D00001CA0570
:10267A00CB11D8A443EF13F045EF13F0A1EF13F0F9
:10268A008AEC1DF0000E21EC1CF005C0C8F006C053
:10269A00C9F0C8C005F0C9C006F0076A086A000E8A
:1026AA0012EC15F005C013F006C014F007C015F0BF
:1026BA0008C016F00A0E176E280E186EA00E196EB4
:1026CA003B0E1A6E82EC0EF013C0C2F014C0C3F0B7
:1026DA0015C0C4F016C0C5F0CC0E0001AA6F000EDA
:1026EA00AB6F010EAC6F080EAD6FC2C0AEF0C3C0C7
:1026FA00AFF0C4C0B0F0C5C0B1F0ACEC1BF0000E36
:10270A00086E000E076E000E0A6E000E096E42EC8D
:10271A001DF0CC0E076E000E086ED9EC1CF0030EED
:10272A000001BD6F8A0EBC6F550EE82EFED7BC2F76
:10273A00FCD7BD2FFAD700D00001CA51CB11D8A4BB
:10274A00A9EF13F0ABEF13F06FEF12F0010E21ECCB
:10275A001CF005C0C8F006C0C9F0C8C005F0C9C061
:10276A0006F0076A086A000E12EC15F005C013F0AD
:10277A0006C014F007C015F008C016F00A0E176E4E
:10278A00280E186EA00E196E3B0E1A6E82EC0EF011
:10279A0013C0C2F014C0C3F015C0C4F016C0C5F00F
:1027AA00CC0E0001AA6F000EAB6F010EAC6F080EC3
:1027BA00AD6FC2C0AEF0C3C0AFF0C4C0B0F0C5C008
:1027CA00B1F0ACEC1BF0000E086E000E076E000EA6
:1027DA000A6E000E096E42EC1DF0CC0E076E000E5A
:1027EA00086ED9EC1CF0030E0001BD6F8A0EBC6F97
:1027FA00550EE82EFED7BC2FFCD7BD2FFAD700D036
:10280A006FEF12F041EF00F0BEC02EF0BFC02FF004
:10281A00C0C030F0C1C031F01EC02EF01FC02FF072
:10282A0020C030F021C031F0810E226EFF0E236EDF
:10283A002EC024F02FC025F030C026F031C027F07A
:10284A00180E2DEF14F0D890273226322532243272
:10285A00E82E28EF14F0245022242C6E000E232098
:10286A002D6E2DBE42EF14F02D5009E1170E2C5C8F
:10287A00D8A042EF14F044EF14F04EEF14F01EC04B
:10288A001EF01FC01FF020C020F021C021F011EF60
:10289A0015F02DBE53EF14F055EF14F0C5EF14F0F8
:1028AA002CC022F0FF0E236EFF0E246E7F0E256EC3
:1028BA00000E266E226664EF14F06CEF14F02634D4
:1028CA002632253224322332222E5FEF14F023C01F
:1028DA0028F024C029F025C02AF026C02BF0285061
:1028EA002E14226E29502F14236E2A503014246E6F
:1028FA002B503114256E2250231024102510D8A4F1
:10290A0089EF14F08BEF14F08DEF14F044EF14F00C
:10291A002EC022F02FC023F030C024F031C025F0A1
:10292A00200E9DEF14F0D890253224322332223221
:10293A00E82E98EF14F02250231024102510D8B452
:10294A00A9EF14F0ABEF14F0B3EF14F028502E26D1
:10295A0029502F222A5030222B503122281C226E35
:10296A00291C236E2A1C246E2B1C256E22502E161F
:10297A0023502F16245030162550311609EF15F022
:10298A002EC022F02FC023F030C024F031C025F031
:10299A00200ED5EF14F0D890253224322332223279
:1029AA00E82ED0EF14F02250231024102510D8A4BA
:1029BA00E1EF14F0E3EF14F0EDEF14F0000E2E6ED9
:1029CA00000E2F6E000E306E000E316E09EF15F0FC
:1029DA00D8902E34226E2F34236E3034246E313444
:1029EA00256E2250231024102510D8B4FFEF14F0BE
:1029FA0001EF15F009EF15F0000E2E6E000E2F6E86
:102A0A00800E306EBF0E316E2EC01EF02FC01FF02A
:102A1A0030C020F031C021F012000D6E0D50D8B434
:102A2A0019EF15F01BEF15F03DEF15F008BE22EF78
:102A3A0015F020EF15F03DEF15F005C009F006C0BE
:102A4A000AF007C00BF008C00CF0091E0A1E0B1E84
:102A5A000C1E092A000E0A220B220C2209C00FF0B2
:102A6A000AC010F00BC011F00CC012F045EF15F0BF
:102A7A0005C00FF006C010F007C011F008C012F030
:102A8A000550061007100810D8A44EEF15F050EFA5
:102A9A0015F05AEF15F0000E056E000E066E000EC8
:102AAA00076E000E086EEBEF15F0960E0E6E64EFD1
:102ABA0015F00E2AD8901232113210320F32000E4F
:102ACA000F14096E000E10140A6E000E11140B6E0C
:102ADA00FE0E12140C6E09500A100B100C10D8A41A
:102AEA0079EF15F07BEF15F05EEF15F089EF15F031
:102AFA000E2A010E0F26000E102211221222D89041
:102B0A001232113210320F32000E0F14096E000EFB
:102B1A0010140A6E000E11140B6EFF0E12140C6EB6
:102B2A0009500A100B100C10D8A49EEF15F0A0EF54
:102B3A0015F07DEF15F0A8EF15F00E06D8900F36B8
:102B4A0010361136123611BEADEF15F0AFEF15F093
:102B5A00B7EF15F0020E0E60B5EF15F0B7EF15F0EE
:102B6A00A2EF15F00EB0BCEF15F0BEEF15F0BFEFF7
:102B7A0015F0119ED8900E320EC009F00A6A0B6A3F
:102B8A000C6A09C00CF00B6A0A6A096A09500F122A
:102B9A000A5010120B5011120C5012120D50D8B4C8
:102BAA00D9EF15F0DBEF15F0E3EF15F008BEE2EF11
:102BBA0015F0E0EF15F0E3EF15F0128E0FC005F0F7
:102BCA0010C006F011C007F012C008F01200000E83
:102BDA001A6E000E196E000E136E000E126EF8EFCA
:102BEA0015F00C4A0D2A010E186E0CC0F6FF0DC026
:102BFA00F7FF0800F550200AD8B406EF16F008EFE0
:102C0A0016F025EF16F0F70E0E6EFF0E0F6E0CC0C3
:102C1A00F6FF0DC0F7FF0800F550106E116A0E504E
:102C2A0010260F501122115009E1050E105CD8A090
:102C3A0021EF16F023EF16F025EF16F0000E186EAE
:102C4A0018C014F0156A14501510D8A42FEF16F0F6
:102C5A0031EF16F0F6EF15F03BEF16F0000E136E9B
:102C6A00010E126E0C4A0D2A70EF16F00CC0F6FF18
:102C7A000DC0F7FF0800F5500E6E0F6A0F50000ADC
:102C8A00D8B44AEF16F070EF16F00E502B0AD8B4EB
:102C9A0037EF16F0060AD8B433EF16F070EF16F0D5
:102CAA0019C005F01AC006F0000E086E0A0E076E6B
:102CBA005AEC1DF00CC0F6FF0DC0F7FF0800F550E6
:102CCA00055E000E065A300E0524196E000E062007
:102CDA001A6E37EF16F0D00E0E6EFF0E0F6E0CC086
:102CEA00F6FF0DC0F7FF0800F550106E116A0E507E
:102CFA0010260F50112211500AE10A0E105CD8A0BA
:102D0A0089EF16F08CEF16F0010E8DEF16F0000E1B
:102D1A00166E176A16501710D8A496EF16F098EF89
:102D2A0016F055EF16F012501310D8A49FEF16F0B4
:102D3A00A1EF16F0AFEF16F019C00EF01AC00FF09F
:102D4A000E1E0F1E0E4A0F2A0EC00CF00FC00DF0F9
:102D5A00B3EF16F019C00CF01AC00DF012000734C8
:102D6A0008340E6E0E50D8A4BDEF16F0BFEF16F061
:102D7A00C9EF16F0000E056E000E066E000E076E05
:102D8A00000E086E36EF17F005C009F006C00AF00B
:102D9A0007C00BF008C00CF0200ED9EF16F0D8903F
:102DAA000C320B320A320932E82ED4EF16F00950EF
:102DBA000D6E078EFF0E0516FF0E0616FF0E07167E
:102DCA00000E0816960E0E5E0EBEF0EF16F0EEEF2F
:102DDA0016F006EF17F00E50800A970FD8B0F8EFEA
:102DEA0016F0FAEF16F0FCEF16F0BFEF16F0D890D7
:102DFA0008320732063205320E3EFCEF16F01EEF9D
:102E0A0017F01F0E0E640CEF17F00EEF17F016EF07
:102E1A0017F0BFEF16F0D890053606360736083693
:102E2A000E060E50D8A41CEF17F01EEF17F010EF85
:102E3A0017F00D50D8B424EF17F026EF17F02EEF45
:102E4A0017F0081E071E061E056C000E0622072232
:102E5A00082205C005F006C006F007C007F008C042
:102E6A0008F01200000E2C14346E000E2D14356E6C
:102E7A00800E2E14366E7F0E2F14376E3450351096
:102E8A0036103710D8A44CEF17F04EEF17F056EF64
:102E9A0017F0000E2C6E000E2D6E000E2E6E000E18
:102EAA002F6E000E3014346E000E3114356E800E03
:102EBA003214366E7F0E3314376E34503510361096
:102ECA003710D8A46BEF17F06DEF17F075EF17F006
:102EDA00000E306E000E316E000E326E000E336E32
:102EEA002FAE7AEF17F07CEF17F085EF17F02C6C06
:102EFA002D1ED8B02D2A2E1ED8B02E2A800E2F565F
:102F0A0033AE8AEF17F08CEF17F095EF17F0306CAD
:102F1A00311ED8B0312A321ED8B0322A800E33562A
:102F2A00000E2C1A000E2D1A000E2E1A800E2F1AC1
:102F3A00000E301A000E311A000E321A800E331AA1
:102F4A0030502C5C31502D5832502E5833502F5857
:102F5A00D8B0B2EF17F0B4EF17F0B7EF17F0D89078
:102F6A00B8EF17F0D880120050C00FF051C010F01F
:102F7A0052C011F053C012F005C00FF006C010F095
:102F8A0007C011F008C012F00FC009F010C00AF013
:102F9A0011C00BF012C00CF0180ED9EF17F0D89030
:102FAA000C320B320A320932E82ED4EF17F00950EC
:102FBA000D6E0E6A0D500E10D8A4E6EF17F0E8EF6A
:102FCA0017F008EF18F0D8900F34096E10340A6E13
:102FDA0011340B6E12340C6E09500A100B100C10BF
:102FEA00D8A4FAEF17F0FCEF17F002EF18F0000E72
:102FFA00066E020E056E37EF18F0000E066E030E0F
:10300A00056E37EF18F00D280E10D8A40FEF18F040
:10301A0011EF18F033EF18F00FC009F010C00AF0E2
:10302A0011C00BF012C00CF0090ED89009360A36FE
:10303A000B360C36E82E1AEF18F009500A100B104E
:10304A000C10D8B42BEF18F02EEF18F0010E2FEF5A
:10305A0018F0000E056E066A37EF18F0000E066EBD
:10306A00040E056E120005C00CF006C00DF007C074
:10307A000EF008C00FF00906D8A00A06092806E1D2
:10308A000A28D8A44BEF18F04DEF18F05AEF18F0B1
:10309A00000E066E000E056EA2EF18F00C4A0D2AFD
:1030AA000E4A0F2A0906D8A00A060CC0D9FF0DC07D
:1030BA00DAFFDF50D8B464EF18F066EF18F091EF3A
:1030CA0018F00EC0F6FF0FC0F7FF0800F550000910
:1030DA00D8B472EF18F074EF18F091EF18F00950A5
:1030EA000A10D8B47BEF18F07DEF18F091EF18F0C2
:1030FA000CC0D9FF0DC0DAFFDF500B6E0EC0F6FF11
:10310A000FC0F7FF0800F5500B18D8B48FEF18F06E
:10311A0091EF18F053EF18F00CC0D9FF0DC0DAFF89
:10312A00DF500B6E0EC0F6FF0FC0F7FF0800F55018
:10313A000B5C056E066AD8A0060612000750081036
:10314A00D8B4AAEF18F0ACEF18F0B5EF18F00750A2
:10315A000810D8A4B3EF18F0B5EF18F0BAEF18F0CA
:10316A0005508CEC1DF007EF19F020EE04F0075023
:10317A00D9260850DA22DE50DE10D8B4C7EF18F08C
:10318A00C9EF18F0E4EF18F020EE04F00750D92642
:10319A000850DA2210EE02F00750E1260850E22227
:1031AA00DE50E65CE650800A0D6EDE50800A0D584D
:1031BA00D8B0E2EF18F0E4EF18F007EF19F020EEBC
:1031CA0002F00750D9260850DA22DECF09F0DDCF07
:1031DA000AF007C0D9FF08C0DAFFDECF0BF0DDCF57
:1031EA000CF009500B24D96E0A500C20DA6E05C077
:1031FA00DFFF20EE02F00750D9260850DA22DE2A35
:10320A00000EDD221200000E0A6E08BE11EF19F040
:10321A000FEF19F017EF19F0076C081ED8B0082A3B
:10322A00010E0A6E06BE1EEF19F01CEF19F024EF0C
:10323A0019F0056C061ED8B0062A010E0A1A000EED
:10324A000C6E000E0B6E07500810D8B42FEF19F051
:10325A0031EF19F059EF19F0010E096E39EF19F033
:10326A00D89007360836092A08AE3EEF19F040EF23
:10327A0019F035EF19F0D8900B360C360750055C6B
:10328A0008500658D8A04CEF19F04EEF19F053EF3A
:10329A0019F00750055E0850065A0B80D89008327C
:1032AA000732092E40EF19F00A50D8B45FEF19F02F
:1032BA0061EF19F065EF19F00B6C0C1ED8B00C2AEF
:1032CA000BC005F00CC006F0120058A06FEF19F001
:1032DA0071EF19F07BEF19F017C00EF018C00FF05C
:1032EA0015C010F016C011F044EC1CF01ABE80EFA5
:1032FA0019F082EF19F088EF19F019C01EF01AC000
:10330A001FF08CEF19F0000E1F6E000E1E6E000EDD
:10331A001D6E000E1C6E9EEF19F0000E066E200E3A
:10332A00056E15C007F016C008F0A3EC18F01C4A89
:10333A001D2A1E501C5C1D50800A1B6E1F50800ADD
:10334A001B58D8A0ABEF19F0ADEF19F092EF19F0B6
:10335A0058B0B2EF19F0B4EF19F0BEEF19F017C078
:10336A000EF018C00FF015C010F016C011F044ECA2
:10337A001CF017C005F018C006F0F5EC1CF01E5042
:10338A000524156E1F500620166E1200000E0A6ED6
:10339A0006BED4EF19F0D2EF19F0DAEF19F0056C86
:1033AA00061ED8B0062A010E0A6E08BEE1EF19F011
:1033BA00DFEF19F0E5EF19F0076C081ED8B0082AFC
:1033CA0007500810D8B4ECEF19F0EEEF19F012EF2D
:1033DA001AF0010E096EF6EF19F0D8900736083682
:1033EA00092A08AEFBEF19F0FDEF19F0F2EF19F018
:1033FA000750055C08500658D8A006EF1AF008EFE7
:10340A001AF00CEF1AF00750055E0850065AD890C9
:10341A0008320732092EFDEF19F00A50D8B418EF16
:10342A001AF01AEF1AF01EEF1AF0056C061ED8B041
:10343A00062A05C005F006C006F01200000E0514A3
:10344A000D6E000E06140E6E800E07140F6E7F0EA0
:10345A000814106E0D500E100F101010D8A438EF6B
:10346A001AF03AEF1AF042EF1AF0000E056E000E4B
:10347A00066E000E076E000E086E000E09140D6E21
:10348A00000E0A140E6E800E0B140F6E7F0E0C14B3
:10349A00106E0D500E100F101010D8A457EF1AF01E
:1034AA0059EF1AF061EF1AF0000E096E000E0A6E5B
:1034BA00000E0B6E000E0C6E095005180FE10A5033
:1034CA0006180CE10B50071809E10C500818D8B47B
:1034DA0071EF1AF073EF1AF076EF1AF0D89077EFCF
:1034EA001AF0D8801200000E956E000E8C6E300E07
:1034FA00E8EC1AF0030E086E8A0E076E560EE82ED6
:10350A00FED7072EFCD7082EFAD7300EE8EC1AF0B1
:10351A00030E086E8A0E076E560EE82EFED7072E89
:10352A00FCD7082EFAD7320EE8EC1AF0280EE8EC8F
:10353A001AF00C0EE8EC1AF0010EE8EC1AF0060E7E
:10354A00E8EC1AF0030E086E8A0E076E560EE82E85
:10355A00FED7072EFCD7082EFAD71200066E8C501B
:10356A000F0B8C6E0650F00B8C108C6E8C84070E31
:10357A00056E7D0EE82EFED7052EFCD700F08C8650
:10358A00070E056E7D0EE82EFED7052EFCD700F03D
:10359A008C960F0E8C160638F00BF00B8C128C845E
:1035AA00070E056E7D0EE82EFED7052EFCD700F01D
:1035BA008C86070E056E7D0EE82EFED7052EFCD7EB
:1035CA0000F08C961200066E8C500F0B8C6E065013
:1035DA00F00B8C108C6E8C94070E056E7D0EE82E07
:1035EA00FED7052EFCD700F08C86070E056E7D0EE1
:1035FA00E82EFED7052EFCD700F08C960F0E8C16FF
:10360A000638F00BF00B8C128C94070E056E7D0EAB
:10361A00E82EFED7052EFCD700F08C86070E056E25
:10362A007D0EE82EFED7052EFCD700F08C961200F0
:10363A00A6C04EF0A7C04FF0000E0001C76F000EE3
:10364A00C66F3BEF1BF0A4C044F0A5C045F04E0E78
:10365A00466E000E476EA8C048F0A9C049F04EEC6D
:10366A000CF044500001C6274550C7234EC0F6FF50
:10367A004FC0F7FF0800F5500009D8A447EF1BF028
:10368A0049EF1BF028EF1BF0C6C0A4F0C7C0A5F095
:10369A001200BF0E0D6EFF0E0E6E0BC00FF00CC0A7
:1036AA0010F00D500F260E50102210500AE11A0E7B
:1036BA000F5CD8A063EF1BF066EF1BF0010E67EFFB
:1036CA001BF0000E116E126A11501210D8B470EF6E
:1036DA001BF072EF1BF079EF1BF0200E0B100B6E34
:1036EA000C500C6E7DEF1BF00BC00BF00CC00CF0F5
:1036FA00120007C00BF008C00CF005C00DF006C0A0
:10370A000EF00B50096E0C500A6E0B4A0C2A09C0B7
:10371A00F6FF0AC0F7FFF86A0DC0D9FF0EC0DAFF3C
:10372A000D4A0E2A070EF76403D00800F55005D09B
:10373A00F6CFE1FFF7CFE2FFE750DF6EDF50D8A404
:10374A00A9EF1BF0ABEF1BF086EF1BF01200AE0ED9
:10375A000001B46F000EB56FAAC0B6F0ABC0B7F0E7
:10376A00000EB96F000EB86F000EBB6F000EBA6F75
:10377A00B60EA46F000EA56FACC0A6F0ADC0A7F040
:10378A00B40EA86F000EA96F1DEC1BF00001B85112
:10379A00AA25D96EB951AB21DA6E000EDF6E12007E
:1037AA00010E0B6E200E05180610D8B4DFEF1BF0C1
:1037BA00E1EF1BF0FAEF1BF0F70E076EFF0E086E33
:1037CA0005C009F006C00AF00750092608500A2267
:1037DA000A5009E1050E095CD8A0F6EF1BF0F8EFD4
:1037EA001BF0FAEF1BF0000E0B6E0BC005F0066A19
:1037FA001200000E301A000E311A000E321A800E14
:10380A00331A2CC005F02DC006F02EC007F02FC0C9
:10381A0008F030C009F031C00AF032C00BF033C0F2
:10382A000CF0EEEC09F005C02CF006C02DF007C034
:10383A002EF008C02FF01200086E0D0E086428EF53
:10384A001CF02AEF1CF02CEF1CF0000E086E08C0CA
:10385A0007F007460746C2500718C30B0718C26E7F
:10386A00C280C282C2B23CEF1CF03EEF1CF037EFBE
:10387A001CF0C290C3CF05F0C4CF06F01200000EB0
:10388A00146E000E136E55EF1CF012C005F0066A96
:10389A0010C007F011C008F0A3EC18F0134A142A5C
:1038AA0013500E24D96E14500F20DA6EDF50126EA8
:1038BA001250D8A463EF1CF065EF1CF04AEF1CF01D
:1038CA0012008BBC6BEF1CF06EEF1CF0010E6FEF59
:1038DA001CF0000EFF0A056E053A054605468B5098
:1038EA000518BF0B05188B6E030E066E8A0E056E41
:1038FA00560EE82EFED7052EFCD7062EFAD7120052
:10390A00BF0E076EFF0E086E05C009F006C00AF06A
:10391A000750092608500A220A500AE11A0E095CC1
:10392A00D8A09AEF1CF09DEF1CF0010E9EEF1CF040
:10393A00000E056E066A12000550061007100810E0
:10394A00D8B4AAEF1CF0ACEF1CF0B4EF1CF0000ED8
:10395A00051A000E061A000E071A800E081A05C06C
:10396A0005F006C006F007C007F008C008F012000C
:10397A00D00E076EFF0E086E05C009F006C00AF0E9
:10398A000750092608500A220A500AE10A0E095C61
:10399A00D8A0D2EF1CF0D5EF1CF0010ED6EF1CF028
:1039AA00000E056E066A1200E8EF1CF0A60EE82E5D
:1039BA00FED700D007C0D9FF08C0DAFFDF50B3EC4A
:1039CA001AF0074A082A07C0D9FF08C0DAFFDF50F1
:1039DA00D8A4F2EF1CF0F4EF1CF0DBEF1CF012009D
:1039EA0005C007F006C008F0FDEF1CF0054A062ADC
:1039FA0005C0D9FF06C0DAFFDF50D8A407EF1DF0D3
:103A0A0009EF1DF0FBEF1CF00750055C056E08502E
:103A1A000658066E120001EE00F0500EEE6AE80635
:103A2A00FDE100EEBEF0180EEE6AE806FDE100EEDA
:103A3A0050F00A0EEE6AE806FDE15A905A92000E1C
:103A4A00F86E000164EF12F006000001CA4BCB2B9E
:103A5A00CBBF39EF1DF0CB5109E1040ECA5DD8A0E6
:103A6A0039EF1DF03BEF1DF03FEF1DF0000ECB6F5D
:103A7A00000ECA6FF2925A92110008BE4DEF1DF065
:103A8A00085008E10704D8A04DEF1DF04FEF1DF0D4
:103A9A0055EF1DF00950C00FE8EC1AF059EF1DF070
:103AAA000950800FE8EC1AF0120005500702F3CF14
:103ABA0009F0F4CF0AF005500802F3500A2606501E
:103ACA000702F3500A2609C005F00AC006F01200E0
:103ADA00C150F00B0709C16ECF0EC116C050F80BCA
:103AEA000509C06EC050C70B1009C06EC08E120007
:103AFA0093809382F288F292F086F090F09CF19C87
:103B0A00F19AD08EF28EF28C12008B8C1200120077
:020000040020DA
:08000000FFFFFFFFFFFFFFFF00
:020000040030CA
:0E000000000C181EFF8180FF0FC00FE00F40A4
:00000001FF
